{
  "contractName": "CaseRepository",
  "abi": [
    {
      "anonymous": false,
      "inputs": [
        {
          "indexed": false,
          "internalType": "address",
          "name": "caseOfficer",
          "type": "address"
        }
      ],
      "name": "CaseAssigned",
      "type": "event"
    },
    {
      "anonymous": false,
      "inputs": [
        {
          "indexed": false,
          "internalType": "address",
          "name": "caseCreator",
          "type": "address"
        },
        {
          "indexed": false,
          "internalType": "uint256",
          "name": "caseId",
          "type": "uint256"
        }
      ],
      "name": "CaseCreated",
      "type": "event"
    },
    {
      "inputs": [
        {
          "internalType": "uint256",
          "name": "",
          "type": "uint256"
        }
      ],
      "name": "cases",
      "outputs": [
        {
          "internalType": "uint256",
          "name": "caseId",
          "type": "uint256"
        },
        {
          "internalType": "address",
          "name": "caseCreator",
          "type": "address"
        },
        {
          "internalType": "enum CaseRepository.MgmtPhase",
          "name": "phase",
          "type": "uint8"
        }
      ],
      "stateMutability": "view",
      "type": "function",
      "constant": true
    },
    {
      "inputs": [],
      "name": "createCase",
      "outputs": [
        {
          "internalType": "uint256",
          "name": "",
          "type": "uint256"
        }
      ],
      "stateMutability": "nonpayable",
      "type": "function"
    },
    {
      "inputs": [
        {
          "internalType": "uint256",
          "name": "_caseId",
          "type": "uint256"
        },
        {
          "internalType": "address",
          "name": "_officerAddress",
          "type": "address"
        }
      ],
      "name": "assignCase",
      "outputs": [],
      "stateMutability": "nonpayable",
      "type": "function"
    }
  ],
  "bytecode": "0x608060405234801561001057600080fd5b506105cc806100206000396000f3fe608060405234801561001057600080fd5b50600436106100415760003560e01c80631b9505ea146100465780639b31f34b14610064578063f09790dd14610080575b600080fd5b61004e6100b2565b60405161005b91906103fa565b60405180910390f35b61007e60048036038101906100799190610368565b610258565b005b61009a6004803603810190610095919061033f565b6102ae565b6040516100a993929190610415565b60405180910390f35b6000806040518060600160405280600160008154809291906100d3906104ad565b9190505581526020013373ffffffffffffffffffffffffffffffffffffffff16815260200160006003811115610132577f4e487b7100000000000000000000000000000000000000000000000000000000600052602160045260246000fd5b815250905060008190806001815401808255809150506001900390600052602060002090600202016000909190919091506000820151816000015560208201518160010160006101000a81548173ffffffffffffffffffffffffffffffffffffffff021916908373ffffffffffffffffffffffffffffffffffffffff16021790555060408201518160010160146101000a81548160ff02191690836003811115610205577f4e487b7100000000000000000000000000000000000000000000000000000000600052602160045260246000fd5b021790555050507f3f78e863cedf5e91e5c35b6fabc10c966293c2bc93371b7a8d3761bf7e17028b816020015182600001516040516102459291906103d1565b60405180910390a1806000015191505090565b806002600084815260200190815260200160002060006101000a81548173ffffffffffffffffffffffffffffffffffffffff021916908373ffffffffffffffffffffffffffffffffffffffff1602179055505050565b600081815481106102be57600080fd5b90600052602060002090600202016000915090508060000154908060010160009054906101000a900473ffffffffffffffffffffffffffffffffffffffff16908060010160149054906101000a900460ff16905083565b60008135905061032481610568565b92915050565b6000813590506103398161057f565b92915050565b60006020828403121561035157600080fd5b600061035f8482850161032a565b91505092915050565b6000806040838503121561037b57600080fd5b60006103898582860161032a565b925050602061039a85828601610315565b9150509250929050565b6103ad8161044c565b82525050565b6103bc8161049b565b82525050565b6103cb81610491565b82525050565b60006040820190506103e660008301856103a4565b6103f360208301846103c2565b9392505050565b600060208201905061040f60008301846103c2565b92915050565b600060608201905061042a60008301866103c2565b61043760208301856103a4565b61044460408301846103b3565b949350505050565b600061045782610471565b9050919050565b600081905061046c82610554565b919050565b600073ffffffffffffffffffffffffffffffffffffffff82169050919050565b6000819050919050565b60006104a68261045e565b9050919050565b60006104b882610491565b91507fffffffffffffffffffffffffffffffffffffffffffffffffffffffffffffffff8214156104eb576104ea6104f6565b5b600182019050919050565b7f4e487b7100000000000000000000000000000000000000000000000000000000600052601160045260246000fd5b7f4e487b7100000000000000000000000000000000000000000000000000000000600052602160045260246000fd5b6004811061056557610564610525565b5b50565b6105718161044c565b811461057c57600080fd5b50565b61058881610491565b811461059357600080fd5b5056fea2646970667358221220718737a167d02099d0b9f867ee911e4f847650c325e5051faac38a33cdd3224b64736f6c63430008040033",
  "immutableReferences": {},
  "source": "// SPDX-License-Identifier: MIT\npragma solidity >=0.8.4 <0.9;\n\ncontract CaseRepository {\n    // Case array\n    Case[] public cases;\n    \n    // State variable used to track the number of \n    // created cases and form a unique Id for each case.\n    uint caseCount;\n    \n    // Case struct holding all required case info\n    struct Case {\n        uint caseId;\n        address caseCreator;\n        MgmtPhase phase;\n    }\n    \n    // Declare case creation event to enable UI awareness\n    \n    event CaseCreated(address caseCreator, uint caseId);\n    \n    // Create the case for incident report, audit, etc..\n    // TODO: Implement timedatestamp.\n    \n    function createCase() public returns (uint) {\n        \n        Case memory caseFile =  Case({caseId:caseCount++, caseCreator:msg.sender, phase:MgmtPhase.Created});\n        \n        cases.push(caseFile);\n        \n        emit CaseCreated(caseFile.caseCreator, caseFile.caseId);\n\n        return (caseFile.caseId);\n    }\n    \n    // Declare event for case assignment to an officer, investigator,\n    // employee, etc. The case can be reassigned if necessary; while\n    // the transaction logs will show the assignment history.\n    // TODO: Implement timedatestamp.\n    \n    event CaseAssigned(address caseOfficer);\n    \n    // When an officer, case manager, employee, etc. is\n    // assigned to the case, the case id  is mapped to \n    // their ethereum address.\n    \n    mapping (uint => address) caseOfficer;\n    \n    function assignCase(uint _caseId, address _officerAddress) public {\n        \n        caseOfficer[_caseId] = _officerAddress;\n    }\n\n    enum MgmtPhase {\n        Created,\n        InvestigationStarted,\n        InvestigationEnded,\n        Closed\n    }\n\n   // constructor(){}\n}\n",
  "sourcePath": "/home/uzyrpr/eth_projects/dapp_proto/contracts/CaseRepository.sol",
  "compiler": {
    "name": "solc",
    "version": "0.8.4+commit.c7e474f2.Emscripten.clang"
  },
  "schemaVersion": "3.4.1",
  "updatedAt": "2021-05-26T21:55:25.007Z",
  "networkType": "ethereum",
  "devdoc": {
    "kind": "dev",
    "methods": {},
    "version": 1
  },
  "userdoc": {
    "kind": "user",
    "methods": {},
    "version": 1
  }
}